:100000000C9462000C948A000C948A000C948A0070
:100010000C948A000C948A000C948A000C948A0038
:100020000C948A000C948A000C948A000C94A50805
:100030000C948A000C948A000C948A000C948A0018
:100040000C943C070C948A000C940A070C94E40668
:100050000C948A000C948A000C948A000C948A00F8
:100060000C9486070C948A000000000024002700EE
:100070002A0000000000250028002B0000000008D6
:10008000000201000003040700000000000000005F
:1000900000000000230026002900040404040404D6
:1000A0000404020202020202030303030303010227
:1000B00004081020408001020408102001020408F6
:1000C00010202B0911241FBECFEFD8E0DEBFCDBF1B
:1000D00011E0A0E0B1E0ECECFEE102C005900D9271
:1000E000A835B107D9F722E0A8E5B1E001C01D921B
:1000F000A63FB207E1F710E0C2E6D0E004C02197C6
:10010000FE010E945E0FC136D107C9F70E94920915
:100110000C94640F0C940000CF92DF92EF92FF9248
:10012000CF93DF93B091DE02A0E08111AB2F8091DD
:10013000DF0290E0880F991FAC0140575F4FC090DD
:10014000E402D090E502E090E602F090E70230E0B1
:1001500020E0FA01C591D491E881B90190E080E0F6
:10016000EB23EA130AC02F5F3F4F6C157D058E0508
:100170009F0578F36FEF7FEFCB01DF91CF91FF9079
:10018000EF90DF90CF900895FC01538D448D252F83
:1001900030E0842F90E0821B930B541710F0CF9621
:1001A000089501970895FC01918D828D981761F053
:1001B000A28DAE0FBF2FB11D5D968C91928D9F5F6A
:1001C0009F73928F90E008958FEF9FEF0895FC0149
:1001D000918D828D981731F0828DE80FF11D858DFC
:1001E00090E008958FEF9FEF0895FC01918D228D8F
:1001F000892F90E0805C9F4F821B91098F73992714
:100200000895FC01A48DA80FB92FB11DA35ABF4FAB
:100210002C91848D90E001968F739927848FA68905
:10022000B7892C93A089B1898C91837080648C9359
:10023000938D848D981306C00288F389E02D808108
:100240008F7D80830895EF92FF920F931F93CF933A
:10025000DF93EC0181E0888F9B8D8C8D98131AC001
:10026000E889F989808185FF15C09FB7F894EE89E8
:10027000FF896083E889F989808183708064808345
:100280009FBF81E090E0DF91CF911F910F91FF9090
:10029000EF900895F62E0B8D10E00F5F1F4F0F7338
:1002A0001127E02E8C8D8E110CC00FB607FCFACFF3
:1002B000E889F989808185FFF5CFCE010E9401018F
:1002C000F1CFEB8DEC0FFD2FF11DE35AFF4FF082C4
:1002D0009FB7F8940B8FEA89FB8980818062CFCF2A
:1002E000CF93DF93EC01888D8823B9F0AA89BB896D
:1002F000E889F9898C9185FD03C0808186FD0DC058
:100300000FB607FCF7CF8C9185FFF2CF808185FF78
:10031000EDCFCE010E940101E9CFDF91CF91089589
:100320008EE292E00E94F50021E0892B09F420E0A2
:10033000822F089580E090E0892B29F00E9490019F
:1003400081110C940000089508950895AF92BF9212
:10035000CF92DF92EF92FF920F931F93CF93DF9391
:100360006C017B018B01040F151FEB015E01AE18C0
:10037000BF08C017D10759F06991D601ED91FC91E2
:100380000190F081E02DC6010995892B79F7C5010F
:10039000DF91CF911F910F91FF90EF90DF90CF9061
:1003A000BF90AF900895833081F028F4813099F0A8
:1003B0008230A9F008958730A9F08830C9F08430E0
:1003C000B1F4809180008F7D03C0809180008F7791
:1003D00080938000089584B58F7784BD089584B597
:1003E0008F7DFBCF8091B0008F778093B000089510
:1003F0008091B0008F7DF9CFCF93DF93282F30E02D
:10040000F901E458FF4F8491F901E255FF4FD4916F
:10041000F901E656FF4FC491CC23A1F081110E944F
:10042000D301EC2FF0E0EE0FFF1FE057FF4FA59137
:10043000B491EC91ED2381E090E009F480E0DF914C
:10044000CF91089580E090E0FACF1F93CF93DF9390
:10045000282F30E0F901E458FF4F8491F901E2556B
:10046000FF4FD491F901E656FF4FC491CC23A9F078
:10047000162F81110E94D301EC2FF0E0EE0FFF1F29
:10048000EE58FF4FA591B4918FB7F894EC911111EC
:1004900008C0D095DE23DC938FBFDF91CF911F91F1
:1004A0000895DE2BF8CFCF93DF9390E0FC01E25567
:1004B000FF4F249186569F4FFC0184918823C9F0F9
:1004C00090E0880F991FFC01E859FF4FA591B49166
:1004D000FC01EE58FF4FC591D49161110DC09FB73B
:1004E000F8948C91209582238C93888128232883EB
:1004F0009FBFDF91CF910895623051F49FB7F89478
:100500003C91822F809583238C93E8812E2BEFCF13
:100510008FB7F894EC912E2B2C938FBFEACF3FB777
:10052000F89480910F0290911002A0911102B09165
:10053000120226B5A89B05C02F3F19F00196A11DF8
:10054000B11D3FBFBA2FA92F982F8827BC01CD011D
:10055000620F711D811D911D42E0660F771F881F7C
:10056000991F4A95D1F708958F929F92AF92BF92AB
:10057000CF92DF92EF92FF924B015C010E948F02BB
:100580006B017C010E948F026C197D098E099F0905
:10059000683E734081059105A8F321E0821A910815
:1005A000A108B10888EEC80E83E0D81EE11CF11C3A
:1005B00081149104A104B10429F7FF90EF90DF901A
:1005C000CF90BF90AF909F908F900895CF92DF9281
:1005D000EF92FF920F931F93CF93DF93CDB7DEB7C8
:1005E000C054D1400FB6F894DEBF0FBECDBF2FB7B9
:1005F000F89480912A0290912B02A0912C02B09144
:100600002D022FBF4091E0025091E1026091E20281
:100610007091E3028C019D01041B150B260B370B17
:10062000B901A801403D57406105710590F48091E2
:10063000E802C05CDE4F0FB6F894DEBF0FBECDBF40
:10064000DF91CF911F910F91FF90EF90DF90CF90AE
:1006500008958093E0029093E102A093E202B093A8
:10066000E3021092DB021092DA021092D902109289
:10067000D8021092D70262E08091DC020E945302FD
:1006800061E070E080E090E00E94B40261E080915F
:10069000DC020E94530260E08091DC020E9425028D
:1006A0008091DD028551823020F58BE291E1019746
:1006B000F1F762E08091DC020E9453028091E9022E
:1006C00090E08230910538F0880F991F880F991FAC
:1006D00005970197F1F7F89480E00E948C006F3F36
:1006E0007F4F8F4F9F4F61F41092E802789480E023
:1006F000A0CF64E170E080E090E00E94B402D9CF26
:1007000081E00E948C006F3F7F4F8F4F9F4F61F3BE
:100710008E010F5F1F4F6E018FEBC81A8EEFD80A44
:10072000780180E00E948C00F701608371838283EE
:10073000938381E00E948C00F70164837583868334
:100740009783F8E0EF0EF11CEC14FD0451F7789458
:1007500030E020E0F801C080D180E280F380448165
:10076000558166817781FFEFCF16DF06EF06FF0622
:1007700031F04F3F8FEF58076807780719F4109250
:10078000E802B5CFF90183E0F595E7958A95E1F7A1
:10079000E952FD4F8081880FC416D506E606F7069C
:1007A00010F180832F5F3F4F085F1F4F28323105C4
:1007B00089F64091DB022091D7028091D802280F60
:1007C0003327331F8091D902280F311D8091DA021F
:1007D000820F932F911D99274817190681F681E002
:1007E0008093E80226CF8160DCCF089520919D019F
:1007F000260F3327331F21323105ECF42091E60117
:10080000FC0190E080E0243069F082E00895A0913E
:100810009D012191AC0143585E4FA40FB52FB11D2E
:100820002C930196861798F380919D01680F609331
:100830009D0180E0089581E008951092E60181E035
:100840008093E5011092C00161E082E10E942502DF
:1008500061E083E10E942502E9EBF0E080818E7F78
:10086000808380818D7F808388E48093B80085E4D5
:100870008093BC000895CF93DF9391E090937C0127
:100880008823B9F0C091B800D091BA008091BC0023
:100890008A7B8093BC0060E082E10E94250260E0D8
:1008A00083E10E9425020E941D04D093BA00C093E8
:1008B000B800DF91CF9108950895E0911A028091D8
:1008C0001902E81730F4F0E0E45AFE4F808190E01E
:1008D00008958FEF9FEF089590911A028091190269
:1008E0002FEF3FEF981748F4E92FF0E0E45AFE4F5E
:1008F000208130E09F5F90931A02C9010895809192
:10090000190290911A02891B990B0895CF92DF92D8
:10091000EF92FF920F931F93CF93DF937C01CB0154
:100920008A012091EC01222389F0EB016B01C40EB6
:10093000D51ECC15DD0569F06991D701ED91FC91CB
:100940000190F081E02DC7010995F3CF642F0E943B
:10095000F603C801DF91CF911F910F91FF90EF90A7
:10096000DF90CF900895CF93DF931F92CDB7DEB77E
:1009700069832091EC012223F9F0209117022032A3
:1009800058F021E030E0FC013383228390E080E0E6
:100990000F90DF91CF91089580911802E82FF0E039
:1009A000E351FE4F998190838F5F8093180280936B
:1009B000170281E090E0ECCF61E0CE0101960E9449
:1009C000F603F7CFCF92DF92EF92FF920F931F9330
:1009D000CF93DF93FC01C48121E02093EC01C0930D
:1009E0000D0210921802109217028385682B8BEC6F
:1009F00092E00E94B304D0911702D13208F092C065
:100A00000E948F026B017C018091E601811165C01B
:100A100082E08093E60181E08093E5018FEF80938F
:100A2000E4011092E301D093E201ADEEB1E0E2EC1B
:100A3000F1E080E0D81385C01092C1018091C1011E
:100A4000CC0FC82BC093C1018091C001813009F047
:100A50007CC01092C0010E948F026B017C018091CA
:100A6000C1018093BB008091E8019091E901A091C0
:100A7000EA01B091EB01892B8A2B8B2B99F00E9414
:100A80008F020091E8011091E9012091EA01309173
:100A9000EB016C197D098E099F09061717072807B6
:100AA0003907E0F18091BC0083FDD9CF85EC8093BC
:100AB000BC000E948F026B017C018091E6018230B4
:100AC00009F445C08091E4018F3F61F18091E40118
:100AD000803241F18091E40125C08091E80190913C
:100AE000E901A091EA01B091EB01892B8A2B8B2BB4
:100AF00009F48ACF0E948F020091E8011091E90168
:100B00002091EA013091EB016C197D098E099F0952
:100B1000061717072807390708F076CF8091E701F5
:100B20000E943B0410921802109217021092EC01DE
:100B3000DF91CF911F910F91FF90EF90DF90CF90B9
:100B400008959D9191938F5F75CF85EEB0CF809181
:100B5000E8019091E901A091EA01B091EB01892BA4
:100B60008A2B8B2B09F4A9CF0E948F020091E801F8
:100B70001091E9012091EA013091EB016C197D0996
:100B80008E099F09061717072807390708F095CF20
:100B9000C5CF90E080E008958F929F92AF92BF9270
:100BA0000F931F93CF93DF93CDB7DEB7A1970FB607
:100BB000F894DEBF0FBECDBF19A2423008F44AE060
:100BC0008E010F5D1F4F842E912CB12CA12CA501FD
:100BD00094010E943C0FE62FB901CA01EA3044F5A6
:100BE000E05DD801EE938D01232B242B252B79F783
:100BF00090E080E0109769F0FD0101900020E9F796
:100C00003197AF014A1B5B0BBD018AEE92E00E9457
:100C1000A601A1960FB6F894DEBF0FBECDBFDF913F
:100C2000CF911F910F91BF90AF909F908F9008959B
:100C3000E95CD7CFFC0101900020E9F73197AF01C3
:100C4000481B590BBC018AEE92E00C94A6010F934D
:100C50001F93CF938C01C62F0E94E2046C2F646017
:100C6000C8010E94E2046C2F6B7FC8010E94E2045D
:100C700083EC90E00197F1F7CF911F910F910895C8
:100C80000F931F93CF93DF938C01D62FC42F607FD8
:100C9000642B0E94270680E1D89FB00111246C2BA1
:100CA000C801DF91CF911F910F910C942706CF932C
:100CB000DF93CDB7DEB728970FB6F894DEBF0FBE2F
:100CC000CDBF98E0E0E0F1E0DE01119601900D92D9
:100CD0009A95E1F79091F202961708F46FEF262F9C
:100CE00030E0220F331F41E050E04C0F5D1F240F16
:100CF000351FF9016081680F606840E08AEE92E07C
:100D000028960FB6F894DEBF0FBECDBFDF91CF910E
:100D10000C94400641E00E94400681E090E0089576
:100D2000CF92DF92EF92FF926B017C0141E06DE286
:100D30008AEE92E00E94400666277727CB016C1965
:100D40007D098E099F094AE00E94CC050196FF901B
:100D5000EF90DF90CF90089585ED8093BC00809157
:100D6000E8019091E901A091EA01B091EB010796A9
:100D7000A11DB11D23E0B695A795979587952A9556
:100D8000D1F72091BC0024FD03C01092E601089524
:100D90004091E8015091E9016091EA017091EB0105
:100DA000452B462B472B69F30097A105B10541F070
:100DB00025E32A95F1F700000197A109B109E1CFD8
:100DC0008091E7010C943B041F920F920FB60F9293
:100DD00011242F933F934F935F936F937F938F9340
:100DE0009F93AF93BF93EF93FF938EE292E00E94A5
:100DF0000101FF91EF91BF91AF919F918F917F91F1
:100E00006F915F914F913F912F910F900FBE0F9077
:100E10001F9018951F920F920FB60F9211242F93C7
:100E20008F939F93EF93FF93E0913E02F0913F02E7
:100E30008081E0914402F091450282FD1BC09081C7
:100E4000809147028F5F8F7320914802821741F093
:100E5000E0914702F0E0E25DFD4F958F80934702FD
:100E6000FF91EF919F918F912F910F900FBE0F9057
:100E70001F9018958081F4CF1F920F920FB60F929A
:100E800011242F933F938F939F93AF93BF938091A0
:100E90002A0290912B02A0912C02B0912D02309148
:100EA0000E0223E0230F2D3758F50196A11DB11D29
:100EB00020930E0280932A0290932B02A0932C027F
:100EC000B0932D0280910F0290911002A091110217
:100ED000B09112020196A11DB11D80930F02909353
:100EE0001002A0931102B0931202BF91AF919F9193
:100EF0008F913F912F910F900FBE0F901F901895DB
:100F000026E8230F0296A11DB11DD2CF1F920F928A
:100F10000FB60F9211242F933F934F935F936F93CC
:100F20007F938F939F93AF93BF93EF93FF938091A2
:100F3000B900887F803609F44AC0F0F5883209F498
:100F4000A7C018F5803109F49BC0B8F4882309F4D0
:100F5000F9C0883009F494C0FF91EF91BF91AF912F
:100F60009F918F917F916F915F914F913F912F91C1
:100F70000F900FBE0F901F901895883109F488C00C
:100F8000803251F78093E40114C0803409F49DC08D
:100F900040F48033B9F38833F9F68093E40185ECAB
:100FA000B0C0803509F485C0883509F496C088340E
:100FB00099F60E94AC06D0CF883909F48CC038F578
:100FC000883729F050F4883611F0803729F683E00D
:100FD0008093E6011092BF0157C0883809F47BC0A6
:100FE000803919F0803809F0B7CF8091BF01803285
:100FF00008F071C0E091BF0181E08E0F8093BF01C6
:101000008091BB00F0E0E156FE4F80833DC0803B05
:1010100039F0E0F4803A09F479C0883A09F09CCFBD
:1010200084E08093E60110929E0110929D01E09170
:101030001502F0911602099580919D0181110FC052
:1010400081E080939D0110927D0109C0803C09F4EC
:10105000A6CF883C09F4A3CF883B09F07DCFE0916F
:101060009E0181E08E0F80939E01F0E0E358FE4FD9
:1010700080818093BB0090919E0180919D0129C049
:101080008091C1018093BB0085EC8093BC0064CF4C
:101090009091E3018091E201981758F5E091E30106
:1010A00081E08E0F8093E301F0E0EE53FE4F8081EC
:1010B000E9CFE091E30181E08E0F8093E30180911D
:1010C000BB00F0E0EE53FE4F80839091E3018091EE
:1010D000E2019817C8F285E8D8CFE091E30181E0FA
:1010E0008E0F8093E3018091BB00F0E0EE53FE4F42
:1010F00080838091E50181115CCF81E08093C00104
:1011000084EA8093BC001092E60126CF85EC8093A0
:10111000BC001092E6018091BF01803230F4E09172
:10112000BF01F0E0E156FE4F10826091BF0170E018
:10113000E0911302F09114028FE991E00995109269
:10114000BF010ACF1092E40134CF1F920F920FB665
:101150000F9211242F933F934F935F936F937F933D
:101160008F939F93AF93BF93CF93EF93FF93809110
:101170001F0290912002A0912102B09122020097BB
:10118000A105B10591F00197A109B10980931F0252
:1011900090932002A0932102B0932202892B8A2BE4
:1011A0008B2B19F481E08093280280912302909187
:1011B0002402A0912502B09126020097A105B10555
:1011C00091F00197A109B109809323029093240221
:1011D000A0932502B0932602892B8A2B8B2B19F41E
:1011E00081E080932902C0915B01C0935A0188E09D
:1011F0000E94FC0180935B01C81310C0C0931C02C5
:10120000C11122C0809158019091590184369105F5
:10121000B8F401969093590180935801FF91EF9192
:10122000CF91BF91AF919F918F917F916F915F917E
:101230004F913F912F910F900FBE0F901F901895D7
:1012400081E080931B02EACF10925901109258015D
:1012500010921B02E3CFEEE2F2E01382128288EEDC
:1012600093E0A0E0B0E084839583A683B7832CE06D
:1012700031E03183208325EC30E03587248724EC6E
:1012800030E03787268720EC30E0318B208B21EC53
:1012900030E0338B228B22EC30E0358B248B26EC34
:1012A00030E0378B268B118E128E138E148EEBEC62
:1012B000F2E01382128284839583A683B7838EE142
:1012C00091E091838083EAEEF2E01382128280E360
:1012D00091E09183808387E2848380E1818782E04B
:1012E00082871386A7EDB2E015968C9315978BE055
:1012F00016968C931697E0EBF0E0E4911796EC933A
:101300001797ECE9F0E0E4911896EC93189740E811
:101310005EE360E070E01D964D935D936D937C936A
:1013200050970895789484B5826084BD84B58160B7
:1013300084BD85B5826085BD85B5816085BD8091A0
:101340006E00816080936E00109281008091810018
:101350008260809381008091810081608093810010
:10136000809180008160809380008091B1008460D2
:101370008093B1008091B00081608093B000809133
:101380007A00846080937A0080917A0082608093F2
:101390007A0080917A00816080937A0080917A004F
:1013A000806880937A001092C10060E088E00E941B
:1013B000530261E08BE00E94530262E08091DC0204
:1013C0000E9453022FB7F89480912A0290912B0229
:1013D000A0912C02B0912D022FBF805D9740A109F2
:1013E000B1098093E0029093E102A093E202B093EE
:1013F000E30287E38093E90210921A021092190225
:1014000010921802109217020E941D0484EA91E0C3
:10141000909316028093150285EA91E0909314024E
:10142000809313021092EF028091F402823018F040
:1014300098E09093EF028093F20262E370E080E024
:1014400090E00E94B4026091F5028AEE92E00E9460
:10145000E20468EE73E080E090E00E94B40260E392
:101460008AEE92E00E942706CBE4D6E4CE010197F3
:10147000F1F760E38AEE92E00E9427062197F1F7E8
:1014800060E38AEE92E00E94270683E592E00197EE
:10149000F1F760E28AEE92E00E9427066091EF0287
:1014A000606240E08AEE92E00E94400684E0809311
:1014B000F00240E06CE08AEE92E00E94400640E0DC
:1014C00061E08AEE92E00E944006CBE3DFE1CE01CC
:1014D0000197F1F782E08093F10240E066E08AEE46
:1014E00092E00E94400640E062E08AEE92E00E94B4
:1014F00040062197F1F788E08093F50260E08AEEDC
:1015000092E00E94E20488E391E00E941A0661E002
:1015100080E00E9457068FE391E00E941A0660E087
:101520008BE00E9457068AE491E00E941A068DE340
:1015300091E00E941A0641E06FED8AEE92E00E946F
:1015400040068CE491E00E941A0661E08BE00E9464
:1015500057068AE491E00E941A068EE491E00E9408
:101560001A0660E080E10E94530260E081E10E947F
:10157000530261E083E00E94530261E081E00E9437
:10158000530261E080E00E94530260E089E00E9423
:10159000530261E08CE00E94530261E08DE00E9402
:1015A000530261E085E00E94530261E084E00E9402
:1015B000530260E08EE00E94530261E087E00E94E7
:1015C000530261E086E00E945302F894109280007A
:1015D00010928100109285001092840083EC99E0B3
:1015E0009093890080938800809181008860809327
:1015F00081008091810083608093810080916F00E1
:10160000826080936F00789481E090E0A0E0B0E089
:1016100080931F0290932002A0932102B093220294
:10162000109228028093230290932402A093250213
:10163000B0932602109229020BE31FE148EE442EDC
:1016400043E0542E612C712CD0E430E0232E30E0A6
:10165000332E80911D0290911E028130910509F474
:1016600056C008F43FC0029709F466C08091280272
:101670008130E9F480912702813009F068C08BE065
:101680000E94FC0161E0892B09F060E08BE00E9480
:10169000250284E690E0A0E0B0E080931F029093E2
:1016A0002002A0932102B09322021092280280917E
:1016B0002902813009F003C10E94E602882359F013
:1016C0008091DD028B3038F08D3008F445C08551B3
:1016D000823008F473C0812C912C20ECA22E2FE7CD
:1016E000B22E58C080911C028111C0CF81E090E0E1
:1016F00090931E0280931D028BE00E94FC0161E02A
:10170000892B09F060E08BE00E942502AFCF809129
:101710001C02882329F010921E0210921D02A6CFEF
:1017200080911B02813009F0A1CFA2E0B0E0B0931C
:101730001E02A0931D029ACFB1E0B09327028091C0
:101740001C02882309F492CF10922702E4CF81E093
:1017500090E0A0E0B0E0A1CF6091D80270E090E00E
:1017600080E00E94150E2DEC3CEC4CEC5DE30E94F9
:10177000A60E6B017C016091D70270E090E080E0E2
:101780000E94150E9B01AC01C701B6010E94710DAC
:101790004B015C010E94E602882309F475C0809128
:1017A000DD028C3009F4DFC0D8F48B3091F1C12C0C
:1017B000D12C80ECE82E8FE7F82E55C06091D7022F
:1017C0007091D80276276727762790E080E00E9404
:1017D000130E2DEC3CEC4CEC5DE30E94A60ED8CF32
:1017E0008551823020F7C091D9026C2F70E0762F9E
:1017F000662766277F778091DA02682B90E080E089
:101800000E94130E2DEC3CEC4CEC5DE30E94A60E06
:10181000C6C06091D90270E090E080E00E94130E93
:101820006B017C01C091DA02C7FF0AC0AC019B01C9
:1018300060E070E080E89FEB0E94700D6B017C011E
:10184000CF706C2F70E090E080E00E94150E2DECC0
:101850003CEC4CEC5DE30E94A60EA70196010E94B1
:10186000710D6B017C01A7019601C701B6010E94B1
:10187000130F811109C0A5019401C501B4010E9493
:10188000130F882309F494C040E061E08AEE92E0EF
:101890000E944006C8010197F1F760E085E00E94D0
:1018A000570681E591E00E941A0640922302509269
:1018B000240260922502709226021092290280E191
:1018C0000E94FC01019709F0CCC081E10E94FC015B
:1018D000019709F0C6C061E083E00E94250260E044
:1018E00081E00E94250260E080E00E94250289E0FC
:1018F0000E94FC01813009F0E5C061E08DE00E94AA
:10190000250260E08CE00E94250261E085E00E94F3
:10191000250260E084E00E942502D0937C00809143
:101920007A00806480937A0080917A0086FDFCCFF3
:10193000809178009091790061E0873408F060E050
:1019400087E00E94250260E086E00E9425022114C3
:10195000310409F47ECE0E949001882309F474CEEC
:101960000E94000071CEC091D9026C2F70E090E00F
:1019700080E00E94130E6B017C016091DA026F70AF
:1019800070E090E080E00E94150E2DEC3CEC4CECF9
:101990005DE30E94A60EA70196010E94710D6B01E6
:1019A0007C01C7FF60CFF7FAF094F7F8F0945BCFB3
:1019B00060E08BE00E94570620E030E0A901C701FB
:1019C000B6010E94A10E20E030E040E05FE387FD19
:1019D00036C0C701B6010E94710D0E94DD0D97FF50
:1019E00033C00E9490068DE391E00E941A0641E008
:1019F0006FED8AEE92E00E9440068CE491E00E9436
:101A00001A0661E08BE00E94570620E030E0A90151
:101A1000C501B4010E94A10E20E030E040E05FE388
:101A200087FD16C0C501B4010E94710D0E94DD0D35
:101A300097FF13C00E9490068EE491E034CFC70157
:101A4000B6010E94700DC9CF4AE00E94CC05CBCFF1
:101A5000C501B4010E94700DE9CF4AE00E94CC0597
:101A6000EBCF80E10E94FC01019759F481E10E94D3
:101A7000FC01892B31F460E083E00E94250261E0E3
:101A80002FCF80E10E94FC01892B69F080E10E9448
:101A9000FC01892B09F02BCF81E10E94FC01019709
:101AA00009F025CF05C081E10E94FC01892B71F767
:101AB00060E083E00E94250260E081E00E94250250
:101AC00061E012CF60E08DE00E94250261E08CE0D1
:101AD0000E94250260E085E00E94250261E01ACFA5
:101AE0005058BB27AA270E94880D0C94670E0E94AD
:101AF000590E38F00E94600E20F039F49F3F19F41F
:101B000026F40C94560E0EF4E095E7FB0C94500E60
:101B1000E92F0E94780E58F3BA17620773078407FB
:101B2000950720F079F4A6F50C949A0E0EF4E09542
:101B30000B2EBA2FA02D0B01B90190010C01CA0187
:101B4000A0011124FF27591B99F0593F50F4503E32
:101B500068F11A16F040A22F232F342F4427585F24
:101B6000F3CF469537952795A795F0405395C9F73C
:101B70007EF41F16BA0B620B730B840BBAF09150F4
:101B8000A1F0FF0FBB1F661F771F881FC2F70EC093
:101B9000BA0F621F731F841F48F487957795679566
:101BA000B795F7959E3F08F0B0CF9395880F08F052
:101BB0009927EE0F9795879508950E94E40D6894F4
:101BC000B1110C949B0E08950E94800E88F09F57CF
:101BD00098F0B92F9927B751B0F0E1F0660F771F51
:101BE000881F991F1AF0BA95C9F714C0B13091F047
:101BF0000E949A0EB1E008950C949A0E672F782FE8
:101C00008827B85F39F0B93FCCF38695779567950B
:101C1000B395D9F73EF490958095709561957F4F77
:101C20008F4F9F4F0895E89409C097FB3EF490951D
:101C30008095709561957F4F8F4F9F4F9923A9F0A5
:101C4000F92F96E9BB279395F69587957795679534
:101C5000B795F111F8CFFAF4BB0F11F460FF1BC078
:101C60006F5F7F4F8F4F9F4F16C0882311F096E90B
:101C700011C0772321F09EE8872F762F05C06623B9
:101C800071F096E8862F70E060E02AF09A95660F72
:101C9000771F881FDAF7880F9695879597F908952B
:101CA00097F99F6780E870E060E008959FEF80EC0F
:101CB000089500240A9416161706180609060895B2
:101CC00000240A9412161306140605060895092E18
:101CD0000394000C11F4882352F0BB0F40F4BF2B87
:101CE00011F460FF04C06F5F7F4F8F4F9F4F0895C7
:101CF00057FD9058440F551F59F05F3F71F04795BD
:101D0000880F97FB991F61F09F3F79F087950895A1
:101D1000121613061406551FF2CF4695F1DF08C0C0
:101D2000161617061806991FF1CF869571056105DD
:101D300008940895E894BB2766277727CB0197F985
:101D400008950E94180F08F48FEF08950E94B90EAD
:101D50000C94670E0E94590E38F00E94600E20F01D
:101D6000952311F00C94500E0C94560E11240C94E3
:101D70009B0E0E94780E70F3959FC1F3950F50E073
:101D8000551F629FF001729FBB27F00DB11D639F2D
:101D9000AA27F00DB11DAA1F649F6627B00DA11DD3
:101DA000661F829F2227B00DA11D621F739FB00D79
:101DB000A11D621F839FA00D611D221F749F3327E9
:101DC000A00D611D231F849F600D211D822F762F82
:101DD0006A2F11249F5750409AF0F1F088234AF05F
:101DE000EE0FFF1FBB1F661F771F881F91505040CB
:101DF000A9F79E3F510580F00C94500E0C949B0E59
:101E00005F3FE4F3983ED4F3869577956795B79551
:101E1000F795E7959F5FC1F7FE2B880F911D96956B
:101E2000879597F908950E94180F880B990B0895CC
:101E3000990F0008550FAA0BE0E8FEEF16161706DB
:101E4000E807F907C0F012161306E407F50798F043
:101E5000621B730B840B950B39F40A2661F0232B5C
:101E6000242B252B21F408950A2609F4A140A695D8
:101E70008FEF811D811D0895A1E21A2EAA1BBB1BA5
:101E8000FD010DC0AA1FBB1FEE1FFF1FA217B30746
:101E9000E407F50720F0A21BB30BE40BF50B661F5C
:101EA000771F881F991F1A9469F760957095809520
:101EB00090959B01AC01BD01CF010895EE0FFF1F6E
:0C1EC0000590F491E02D0994F894FFCFF8
:101ECC000000400014005400000000002301A60193
:101EDC00C4007001F500D300E70000000000B3045B
:101EEC008604C9055C047F046C045D0400000000DA
:101EFC008A06A601C905F50354656D703A200048A1
:101F0C00756D69646974793A2000300043002025AE
:081F1C00004572726F72210092
:00000001FF
